:020000040800F2
:100000000805002055020008A5020008A10200080A
:10001000A30200089D020008E90300080000000098
:100020000000000000000000000000009D0100082A
:100030009F02000800000000F101000861030008B1
:100040006F0200086F0200086F0200086F020008CC
:100050006F0200086F0200086F0200086F020008BC
:100060006F0200086F0200086F0200086F020008AC
:100070006F0200086F0200086F0200086F0200089C
:100080006F0200086F0200086F0200086F0200088C
:100090006F0200086F0200086F0200086F0200087C
:1000A0006F0200086F0200086F0200086F0200086C
:1000B0006F0200086F0200086F0200086F0200085C
:1000C0006F0200086F0200086F0200086F0200084C
:1000D0006F0200086F0200086F0200086F0200083C
:1000E0006F0200086F0200086F0200086F0200082C
:1000F0006F0200086F0200086F0200086F0200081C
:100100006F0200086F0200086F0200086F0200080B
:100110006F0200086F0200086F0200086F020008FB
:100120006F0200086F0200086F0200086F020008EB
:100130006F0200086F0200086F0200086F020008DB
:100140006F0200086F0200086F0200086F020008CB
:100150006F0200086F0200086F0200086F020008BB
:100160006F0200086F0200086F0200086F020008AB
:100170006F0200086F0200086F0200086F0200089B
:100180006F0200086F020008DFF80CD000F074F86E
:100190000048004709040008080500202A4B196898
:1001A0000868B0E8F04F80F30988BFF36F8F4FF015
:1001B000000080F3118870470000000006480068C6
:1001C000006880F3088862B661B6BFF34F8FBFF353
:1001D0006F8F00DF00BF00BF08ED00E0DFF80C000C
:1001E000016841F470010160704700BF88ED00E0D4
:1001F000EFF30980BFF36F8F134B1A681EF0100FD7
:1002000008BF20ED108A20E9F04F106008B44FF0CD
:10021000500080F31188BFF34F8FBFF36F8F00F052
:1002200025F94FF0000080F3118808BC19680868B0
:10023000B0E8F04F1EF0100F08BFB0EC108A80F34A
:100240000988BFF36F8F704700000020EFF305802F
:10025000704700000648804706480047FEE7FEE773
:10026000FEE7FEE7FEE7FEE7FEE7FEE7FEE7FEE766
:100270008D03000889010008064C074D06E0E06880
:1002800040F0010394E8070098471034AC42F6D3DD
:10029000FFF77EFF98050008B8050008FEE77047E5
:1002A000FEE7FEE7704700000CB5002201920092C5
:1002B0002749086840F4803008604FF4A04308687C
:1002C00000F4003000900198401C0190009810B993
:1002D00001989842F3D10868800302D5012000906C
:1002E00000E000920098012831D11948403002689E
:1002F00042F0805202601748026842F440420260B5
:100300001348083002680260026842F4004202604A
:10031000026842F4A0520260021F0F4B13600A6889
:1003200042F080720A600A689201FCD50B4A40F2E2
:1003300005711160016821F003010160016841F05D
:10034000020101600168C1F381010229FAD10CBDEB
:10035000003802400070004019544007003C024041
:1003600010B5502080F31188BFF34F8FBFF36F8F0C
:1003700000F0ACF818B104494FF08050086000203C
:1003800080F3118810BD000004ED00E010B51248A4
:10039000016841F4700101601048016841F00101F9
:1003A00001600E4A00210832116002680C4B1A40AD
:1003B0000260031D0B4A1A60026822F48022026068
:1003C00006480C300160FFF76FFF03494FF00060F3
:1003D0008039086010BD000088ED00E00038024060
:1003E000FFFFF6FE10300024FEE702E008C8121FEF
:1003F00008C1002AFAD170477047002001E001C10E
:10040000121F002AFBD17047FEE700000748416B2E
:100410000968002905D0416BC968C96849688162CB
:1004200070474FF0FF3181627047000000000020EC
:100430000169D0E901329A60D0E901235A604A6823
:10044000824201D182684A60002202610868401E2F
:100450000860704742684A6093688B60936859608F
:10046000916008610168491C01607047154A106B72
:10047000002802D00120D06170470020D0611069AF
:10048000B0FA80F0C0F11F000F4900EB800051F876
:10049000203073B101EB800041684968416000F190
:1004A0000803994201D1496841604068C068106002
:1004B0007047502080F31188BFF34F8FBFF36F8FC9
:1004C000FEE70000000000203C0000202DE9F04184
:1004D00000262F4F386B002808D0B869401CB8613F
:1004E000F86900B101263046BDE8F081FD686D1C59
:1004F000FD609DB9786B006838B1502080F3118899
:10050000BFF34F8FBFF36F8FFEE7786BB96B7963E3
:10051000B863386A401C3862FFF778FFB86ADFF8C2
:10052000748085420DD3786B006838B1786BC068F1
:10053000C468606885420ED2B86202E04FF0FF30B6
:10054000B8623868C06A00EB800058F820000128C3
:10055000C6D90126C4E7201DFFF76AFFA06A18B1BB
:1005600004F11800FFF764FFE06A01213A69814055
:100570001143396100EB800008EB8000211DFFF77B
:1005800069FFE06A3968C96A8842CCD30126CAE7A4
:10059000000000203C000020B805000800000020FA
:1005A0003C000000EA030008F40500083C000020BD
:1005B000CC040000FA030008000000000000000066
:1005C000000000000000000000000000000000002B
:1005D000000000000000000000000000000000001B
:1005E000000000000000000000000000000000000B
:0405F0000000000007
:040000050800018965
:00000001FF
