:020000040800F2
:10000000781E0020290200087B0200087502000803
:100010007902000871020008390800080000000099
:10002000000000000000000000000000BD0100080A
:100030007302000800000000DD010008AD050008A3
:10004000430200084302000843020008430200087C
:10005000430200084302000843020008430200086C
:10006000430200084302000843020008430200085C
:10007000430200084302000843020008430200084C
:10008000430200084302000843020008430200083C
:10009000430200084302000843020008430200082C
:1000A000430200084302000843020008430200081C
:1000B000430200084302000843020008430200080C
:1000C00043020008430200084302000843020008FC
:1000D00043020008430200084302000843020008EC
:1000E00043020008430200084302000843020008DC
:1000F00043020008430200084302000843020008CC
:1001000043020008430200084302000843020008BB
:1001100043020008430200084302000843020008AB
:10012000430200084302000843020008430200089B
:10013000430200084302000843020008430200088B
:10014000430200084302000843020008430200087B
:10015000430200084302000843020008430200086B
:10016000430200084302000843020008430200085B
:10017000430200084302000843020008430200084B
:100180004302000843020008DFF80CD000F05EF8DC
:100190000048004759080008781E002006480068FB
:1001A000006880F3088862B661B6BFF34F8FBFF373
:1001B0006F8F00DF00BF00BF08ED00E0194B19682A
:1001C0000868B0E8F04F80F30988BFF36F8F4FF0F5
:1001D000000080F31188704700000000114B1A687E
:1001E000EFF3098020E9F04F80F30988106008B42C
:1001F0004FF0500080F31188BFF36F8FBFF34F8F24
:1002000000F004FC4FF0000080F31188BFF36F8F03
:10021000BFF34F8F08BC19680868B0E8F04F80F34F
:1002200009887047000000200648804706480047BC
:10023000FEE7FEE7FEE7FEE7FEE7FEE7FEE7FEE796
:10024000FEE7FEE7E105000889010008064C074DBE
:1002500006E0E06840F0010394E807009847103496
:10026000AC42F6D3FFF794FF580A0008780A00085A
:10027000FEE77047FEE7FEE7FEE7704708480168C3
:1002800041F470010160016841F0704101604FF07C
:10029000E0200449416107210161FFF77FBF0000B1
:1002A00020ED00E03F90020010B5C068046904F141
:1002B000200000F05FFA04F10C0000F05BFA6068C7
:1002C0000A49C0EBC00001EB8000214600F064FB4E
:1002D0000749606809684968884204D90120054ACD
:1002E0000121116010BD002010BD00004800002059
:1002F000000000201000002010B50346002400215B
:100300000E4801EBC10250F832208AB1491C052980
:10031000F7DB0120206000202071636404F12400D9
:1003200000F0D4FA04F1080000F0D0FA204610BD25
:1003300001EBC10100EBC104EBE700000C01002060
:100340002DE9F04704460E460025DFF8C0A04FF027
:100350005008A94688F31188BFF34F8FBFF36F8F02
:10036000D4E91001884216D2206C401C2064606AD7
:1003700040B104F12400FFF797FF18B124494FF072
:100380008050086089F31188BFF34F8FBFF36F8FE0
:100390000120BDE8F0870EB145B10AE089F311886C
:1003A000BFF34F8FBFF36F8F0020F2E7DAF80070D2
:1003B000012589F31188BFF34F8FBFF36F8F88F347
:1003C0001188BFF34F8FBFF36F8F00F019FBDAF87E
:1003D0000000C01BB04217D2A06848B90D480168A0
:1003E00004F10800203100F07DFA304600F0B2FA46
:1003F00009490120086000F0EFFA89F31188BFF382
:100400004F8FBFF36F8FA5E70020C2E708000020E1
:1004100004ED00E000000020100000202DE9F0476E
:1004200004460E460025DFF8BCA04FF05008A94650
:1004300088F31188BFF34F8FBFF36F8F206CB0B17B
:10044000206C401E2064A06840B104F10800FFF752
:100450002BFF18B124494FF08050086089F31188B0
:10046000BFF34F8FBFF36F8F0120BDE8F0870EB150
:1004700045B10AE089F31188BFF34F8FBFF36F8F47
:100480000020F2E7DAF80070012589F31188BFF344
:100490004F8FBFF36F8F88F31188BFF34F8FBFF378
:1004A0006F8F00F0ADFADAF80000C01BB04217D22F
:1004B000606A48B90D48016804F12400203100F059
:1004C00011FA304600F046FA09490120086000F0B0
:1004D00083FA89F31188BFF34F8FBFF36F8FA7E7BC
:1004E0000020C2E70800002004ED00E0000000202A
:1004F000100000200CB500220192009227490868E4
:1005000040F4803008604FF4A043086800F40030E5
:1005100000900198401C0190009810B901989842F1
:10052000F3D10868800302D50120009000E000921A
:100530000098012831D119484030026842F08052B9
:1005400002601748026842F44042026013480830D3
:1005500002680260026842F400420260026842F4EB
:10056000A0520260021F0F4B13600A6842F08072B3
:100570000A600A689201FCD50B4A40F205711160CD
:10058000016821F003010160016841F0020101608E
:100590000168C1F381010229FAD10CBD0038024083
:1005A0000070004019544007003C024010B5502034
:1005B00080F31188BFF34F8FBFF36F8F00F0F0F817
:1005C00018B106494FF080500860002080F3118870
:1005D000BFF34F8FBFF36F8F10BD000004ED00E03D
:1005E00010B51248016841F47001016010480168BB
:1005F00041F0010101600E4A0021083211600268D9
:100600000C4B1A400260031D0B4A1A60026822F468
:100610008022026006480C300160FFF76BFF03493F
:100620004FF000608039086010BD000088ED00E0E8
:1006300000380240FFFFF6FE103000240B4C4FF64E
:10064000FF752946E068FFF7E9FE0028F9D0206928
:1006500048B100202061052000F0AEF92946E0688D
:10066000FFF76EFEEDE70120F4E700002400002014
:100670000B4C4FF6FF752946E068FFF7CFFE0028C8
:10068000F9D0606948B1002060612946E068FFF751
:1006900057FE052000F090F9EDE70120F4E7000097
:1006A000240000202DE9F0418046069C0E461746A6
:1006B00003EB8705AB6025606E602168C96100F0BF
:1006C00037F81948016861B301684A6821684B68C6
:1006D0009A4200D8016020680C3000F023F92068AD
:1006E000203000F01FF92068C06120680063216895
:1006F000C6F1050008620D4AC6EBC60002EB800099
:10070000216800F049F920687F1E816801EB8701AC
:100710000160404600F034F8216808602068BDE8B8
:10072000F08121680160D6E7000000204800002029
:1007300070B50E498869401C8861012814D10024D5
:100740000B4DC4EBC40005EB800000F0BFF8641C47
:10075000052CF6D906488C3000F0B8F8BDE870409A
:100760000348A83000F0B2B870BD000000000020BF
:100770004800002010B5C46800F0D7F8206810BD0C
:1007800024394FF080720A6220F00100C861002015
:1007900088614860C01E41F8200908467047000083
:1007A0002DE9F0470025224F7868002820D1BE6847
:1007B000761CBE60F868DFF87C9086420FD309F1A2
:1007C0008C08D8F8000038B1D8F80C00046900682B
:1007D000864213D2F86002E04FF0FF30F8603868CC
:1007E0004068C0EBC00059F82000012800D901255D
:1007F000386900B101252846BDE8F08704F10C00F6
:1008000000F093F860682146C0EBC00009EB80005F
:1008100000F0C2F8E06A18B104F1200000F085F899
:100820006068396849688842CBD30125C9E7000070
:100830000000002048000020FEE702E008C8121F68
:1008400008C1002AFAD170477047002001E001C1B9
:10085000121F002AFBD1704738B50120FFF74CFD6D
:10086000134CE0600021FFF76BFD04F118000090CD
:10087000104B402200211048FFF714FF206004F1C4
:100880001C0000900D4B402201210D48FFF70AFF8C
:10089000606004F1200000900A4B402202210A48C7
:1008A000FFF700FFA060FFF7E9FC002038BD000063
:1008B000240000207402002077020008740A00203F
:1008C0003D06000874120020710600080022026034
:1008D000511E816000F10801C160016182614261C5
:1008E0004160704730B500F108020C6800E01A461C
:1008F00053681D68A542FAD953684B608A609960B5
:100900008A685160C8600168491C016030BD426856
:10091000C8604A6093688B60596091600168491CA7
:10092000016070470021C1607047C168D0E90123B0
:100930005A60D0E901329A604A68824201D18268E5
:100940004A600022426082600B685B1E0B60C260DE
:100950007047000070B506460D4DAC6828680C3035
:10096000FFF708FF30B928680121EA690079814062
:100970008A43EA6134442868C460296805480C3118
:10098000FFF7B0FFE868844200D2EC6070BD000061
:1009900000000020D400002010B50C4604F10C012A
:1009A000FFF7B5FF2179012088400249CA69104349
:1009B000C86110BD0000002010B5024600F020F80C
:1009C0001046FFF7C7FF00F007F802494FF08050CC
:1009D000086010BD04ED00E0502080F31188BFF3E3
:1009E0004F8FBFF36F8F05490020486080F3118857
:1009F000BFF34F8FBFF36F8F7047000000000020E0
:100A0000014901204861704700000020104A5068E9
:100A1000002802D00120106101E000201061D0699F
:100A2000B0FA80F0C0F11F00C0EBC001094800EB34
:100A3000810041684968416000F10803994201D191
:100A400049684160406800691062106070470000AA
:100A50000000002048000020780A00080000002064
:100A6000480000003A080008C00A000848000020BA
:100A7000301E00004A0800080000000000000000CE
:100A800000000000FFFFFFFF00000000000000006A
:100A90000000000000000000000000000000000056
:100AA0000000000000000000000000000000000046
:100AB0000000000000000000000000000000000036
:040000050800018965
:00000001FF
